{
  "_format": "hh-sol-artifact-1",
  "contractName": "MockBep20",
  "sourceName": "contracts/mockup/MockBep20.sol",
  "abi": [
    {
      "inputs": [],
      "stateMutability": "nonpayable",
      "type": "constructor"
    },
    {
      "anonymous": false,
      "inputs": [
        {
          "indexed": true,
          "internalType": "address",
          "name": "owner",
          "type": "address"
        },
        {
          "indexed": true,
          "internalType": "address",
          "name": "spender",
          "type": "address"
        },
        {
          "indexed": false,
          "internalType": "uint256",
          "name": "value",
          "type": "uint256"
        }
      ],
      "name": "Approval",
      "type": "event"
    },
    {
      "anonymous": false,
      "inputs": [
        {
          "indexed": true,
          "internalType": "address",
          "name": "from",
          "type": "address"
        },
        {
          "indexed": true,
          "internalType": "address",
          "name": "to",
          "type": "address"
        },
        {
          "indexed": false,
          "internalType": "uint256",
          "name": "value",
          "type": "uint256"
        }
      ],
      "name": "Transfer",
      "type": "event"
    },
    {
      "inputs": [
        {
          "internalType": "address",
          "name": "owner",
          "type": "address"
        },
        {
          "internalType": "address",
          "name": "spender",
          "type": "address"
        }
      ],
      "name": "allowance",
      "outputs": [
        {
          "internalType": "uint256",
          "name": "",
          "type": "uint256"
        }
      ],
      "stateMutability": "view",
      "type": "function"
    },
    {
      "inputs": [
        {
          "internalType": "address",
          "name": "spender",
          "type": "address"
        },
        {
          "internalType": "uint256",
          "name": "amount",
          "type": "uint256"
        }
      ],
      "name": "approve",
      "outputs": [
        {
          "internalType": "bool",
          "name": "",
          "type": "bool"
        }
      ],
      "stateMutability": "nonpayable",
      "type": "function"
    },
    {
      "inputs": [
        {
          "internalType": "address",
          "name": "account",
          "type": "address"
        }
      ],
      "name": "balanceOf",
      "outputs": [
        {
          "internalType": "uint256",
          "name": "",
          "type": "uint256"
        }
      ],
      "stateMutability": "view",
      "type": "function"
    },
    {
      "inputs": [],
      "name": "decimals",
      "outputs": [
        {
          "internalType": "uint8",
          "name": "",
          "type": "uint8"
        }
      ],
      "stateMutability": "view",
      "type": "function"
    },
    {
      "inputs": [
        {
          "internalType": "address",
          "name": "spender",
          "type": "address"
        },
        {
          "internalType": "uint256",
          "name": "subtractedValue",
          "type": "uint256"
        }
      ],
      "name": "decreaseAllowance",
      "outputs": [
        {
          "internalType": "bool",
          "name": "",
          "type": "bool"
        }
      ],
      "stateMutability": "nonpayable",
      "type": "function"
    },
    {
      "inputs": [],
      "name": "getOwner",
      "outputs": [
        {
          "internalType": "address",
          "name": "",
          "type": "address"
        }
      ],
      "stateMutability": "view",
      "type": "function"
    },
    {
      "inputs": [
        {
          "internalType": "address",
          "name": "spender",
          "type": "address"
        },
        {
          "internalType": "uint256",
          "name": "addedValue",
          "type": "uint256"
        }
      ],
      "name": "increaseAllowance",
      "outputs": [
        {
          "internalType": "bool",
          "name": "",
          "type": "bool"
        }
      ],
      "stateMutability": "nonpayable",
      "type": "function"
    },
    {
      "inputs": [
        {
          "internalType": "uint256",
          "name": "amount",
          "type": "uint256"
        }
      ],
      "name": "mint",
      "outputs": [
        {
          "internalType": "bool",
          "name": "",
          "type": "bool"
        }
      ],
      "stateMutability": "nonpayable",
      "type": "function"
    },
    {
      "inputs": [],
      "name": "name",
      "outputs": [
        {
          "internalType": "string",
          "name": "",
          "type": "string"
        }
      ],
      "stateMutability": "view",
      "type": "function"
    },
    {
      "inputs": [],
      "name": "pauseState",
      "outputs": [
        {
          "internalType": "string",
          "name": "",
          "type": "string"
        }
      ],
      "stateMutability": "view",
      "type": "function"
    },
    {
      "inputs": [],
      "name": "symbol",
      "outputs": [
        {
          "internalType": "string",
          "name": "",
          "type": "string"
        }
      ],
      "stateMutability": "view",
      "type": "function"
    },
    {
      "inputs": [],
      "name": "totalSupply",
      "outputs": [
        {
          "internalType": "uint256",
          "name": "",
          "type": "uint256"
        }
      ],
      "stateMutability": "view",
      "type": "function"
    },
    {
      "inputs": [
        {
          "internalType": "address",
          "name": "recipient",
          "type": "address"
        },
        {
          "internalType": "uint256",
          "name": "amount",
          "type": "uint256"
        }
      ],
      "name": "transfer",
      "outputs": [
        {
          "internalType": "bool",
          "name": "",
          "type": "bool"
        }
      ],
      "stateMutability": "nonpayable",
      "type": "function"
    },
    {
      "inputs": [
        {
          "internalType": "address",
          "name": "sender",
          "type": "address"
        },
        {
          "internalType": "address",
          "name": "recipient",
          "type": "address"
        },
        {
          "internalType": "uint256",
          "name": "amount",
          "type": "uint256"
        }
      ],
      "name": "transferFrom",
      "outputs": [
        {
          "internalType": "bool",
          "name": "",
          "type": "bool"
        }
      ],
      "stateMutability": "nonpayable",
      "type": "function"
    }
  ],
  "bytecode": "0x608060405234801561001057600080fd5b50600280546001600160a01b0319163317905560408051808201909152600b8082526a04d6f636b757042657032360ac1b602090920191825261005591600691610102565b506040805180820190915260208082527f4d4b42455032303030303030303030303030303030303030303030303030303091810191825261009891600591610102565b506004805460ff191660121790556a084595161401484a00000060038190553360008181526020818152604080832085905551938452919290917fddf252ad1be2c89b69c2b068fc378daa952ba7f163c4a11628f55a4df523b3ef910160405180910390a36101d6565b82805461010e9061019b565b90600052602060002090601f0160209004810192826101305760008555610176565b82601f1061014957805160ff1916838001178555610176565b82800160010185558215610176579182015b8281111561017657825182559160200191906001019061015b565b50610182929150610186565b5090565b5b808211156101825760008155600101610187565b600181811c908216806101af57607f821691505b602082108114156101d057634e487b7160e01b600052602260045260246000fd5b50919050565b610b32806101e56000396000f3fe608060405234801561001057600080fd5b50600436106100ea5760003560e01c8063893d20e81161008c578063a457c2d711610066578063a457c2d7146101dc578063a9059cbb146101ef578063d711835114610202578063dd62ed3e1461023b57600080fd5b8063893d20e8146101a657806395d89b41146101c1578063a0712d68146101c957600080fd5b806323b872dd116100c857806323b872dd14610142578063313ce56714610155578063395093511461016a57806370a082311461017d57600080fd5b806306fdde03146100ef578063095ea7b31461010d57806318160ddd14610130575b600080fd5b6100f7610274565b60405161010491906108cb565b60405180910390f35b61012061011b36600461093c565b610306565b6040519015158152602001610104565b6003545b604051908152602001610104565b610120610150366004610966565b61031c565b60045460405160ff9091168152602001610104565b61012061017836600461093c565b610385565b61013461018b3660046109a2565b6001600160a01b031660009081526020819052604090205490565b6002546040516001600160a01b039091168152602001610104565b6100f76103bb565b6101206101d73660046109bd565b6103ca565b6101206101ea36600461093c565b6103de565b6101206101fd36600461093c565b61042d565b60408051808201909152600d81527f4865792c204e6f7420737572650000000000000000000000000000000000000060208201526100f7565b6101346102493660046109d6565b6001600160a01b03918216600090815260016020908152604080832093909416825291909152205490565b60606006805461028390610a09565b80601f01602080910402602001604051908101604052809291908181526020018280546102af90610a09565b80156102fc5780601f106102d1576101008083540402835291602001916102fc565b820191906000526020600020905b8154815290600101906020018083116102df57829003601f168201915b5050505050905090565b600061031333848461043a565b50600192915050565b6000610329848484610598565b61037b843361037685604051806060016040528060288152602001610a8a602891396001600160a01b038a166000908152600160209081526040808320338452909152902054919061074d565b61043a565b5060019392505050565b3360008181526001602090815260408083206001600160a01b038716845290915281205490916103139185906103769086610787565b60606005805461028390610a09565b60006103d633836107ed565b506001919050565b6000610313338461037685604051806060016040528060258152602001610ad8602591393360009081526001602090815260408083206001600160a01b038d168452909152902054919061074d565b6000610313338484610598565b6001600160a01b0383166104ba5760405162461bcd60e51b8152602060048201526024808201527f42455032303a20617070726f76652066726f6d20746865207a65726f2061646460448201527f726573730000000000000000000000000000000000000000000000000000000060648201526084015b60405180910390fd5b6001600160a01b0382166105365760405162461bcd60e51b815260206004820152602260248201527f42455032303a20617070726f766520746f20746865207a65726f20616464726560448201527f737300000000000000000000000000000000000000000000000000000000000060648201526084016104b1565b6001600160a01b0383811660008181526001602090815260408083209487168084529482529182902085905590518481527f8c5be1e5ebec7d5bd14f71427d1e84f3dd0314c0f7b2291e5b200ac8c7c3b92591015b60405180910390a3505050565b6001600160a01b0383166106145760405162461bcd60e51b815260206004820152602560248201527f42455032303a207472616e736665722066726f6d20746865207a65726f20616460448201527f647265737300000000000000000000000000000000000000000000000000000060648201526084016104b1565b6001600160a01b0382166106905760405162461bcd60e51b815260206004820152602360248201527f42455032303a207472616e7366657220746f20746865207a65726f206164647260448201527f657373000000000000000000000000000000000000000000000000000000000060648201526084016104b1565b6106cd81604051806060016040528060268152602001610ab2602691396001600160a01b038616600090815260208190526040902054919061074d565b6001600160a01b0380851660009081526020819052604080822093909355908416815220546106fc9082610787565b6001600160a01b038381166000818152602081815260409182902094909455518481529092918616917fddf252ad1be2c89b69c2b068fc378daa952ba7f163c4a11628f55a4df523b3ef910161058b565b600081848411156107715760405162461bcd60e51b81526004016104b191906108cb565b50600061077e8486610a5a565b95945050505050565b6000806107948385610a71565b9050838110156107e65760405162461bcd60e51b815260206004820152601b60248201527f536166654d6174683a206164646974696f6e206f766572666c6f77000000000060448201526064016104b1565b9392505050565b6001600160a01b0382166108435760405162461bcd60e51b815260206004820152601f60248201527f42455032303a206d696e7420746f20746865207a65726f20616464726573730060448201526064016104b1565b6003546108509082610787565b6003556001600160a01b0382166000908152602081905260409020546108769082610787565b6001600160a01b038316600081815260208181526040808320949094559251848152919290917fddf252ad1be2c89b69c2b068fc378daa952ba7f163c4a11628f55a4df523b3ef910160405180910390a35050565b600060208083528351808285015260005b818110156108f8578581018301518582016040015282016108dc565b8181111561090a576000604083870101525b50601f01601f1916929092016040019392505050565b80356001600160a01b038116811461093757600080fd5b919050565b6000806040838503121561094f57600080fd5b61095883610920565b946020939093013593505050565b60008060006060848603121561097b57600080fd5b61098484610920565b925061099260208501610920565b9150604084013590509250925092565b6000602082840312156109b457600080fd5b6107e682610920565b6000602082840312156109cf57600080fd5b5035919050565b600080604083850312156109e957600080fd5b6109f283610920565b9150610a0060208401610920565b90509250929050565b600181811c90821680610a1d57607f821691505b60208210811415610a3e57634e487b7160e01b600052602260045260246000fd5b50919050565b634e487b7160e01b600052601160045260246000fd5b600082821015610a6c57610a6c610a44565b500390565b60008219821115610a8457610a84610a44565b50019056fe42455032303a207472616e7366657220616d6f756e74206578636565647320616c6c6f77616e636542455032303a207472616e7366657220616d6f756e7420657863656564732062616c616e636542455032303a2064656372656173656420616c6c6f77616e63652062656c6f77207a65726fa26469706673582212208d35f72b79e2af01d6cdc9a2803b9c3cb87d0995a1d71649b1fc3f51ca4b583a64736f6c63430008090033",
  "linkReferences": {},
  "deployedLinkReferences": {}
}