{
  "_format": "hh-sol-artifact-1",
  "contractName": "OracleOpen",
  "sourceName": "contracts/OracleOpen.sol",
  "abi": [
    {
      "inputs": [],
      "stateMutability": "nonpayable",
      "type": "constructor"
    },
    {
      "anonymous": false,
      "inputs": [
        {
          "indexed": true,
          "internalType": "address",
          "name": "_pauser",
          "type": "address"
        },
        {
          "indexed": false,
          "internalType": "bool",
          "name": "isPaused",
          "type": "bool"
        }
      ],
      "name": "PauseState",
      "type": "event"
    },
    {
      "inputs": [
        {
          "internalType": "address",
          "name": "_addrMarket",
          "type": "address"
        }
      ],
      "name": "getLatestPrice",
      "outputs": [
        {
          "internalType": "uint256",
          "name": "",
          "type": "uint256"
        }
      ],
      "stateMutability": "view",
      "type": "function"
    },
    {
      "inputs": [],
      "name": "isPausedOracle",
      "outputs": [
        {
          "internalType": "bool",
          "name": "",
          "type": "bool"
        }
      ],
      "stateMutability": "view",
      "type": "function"
    },
    {
      "inputs": [
        {
          "internalType": "address",
          "name": "account",
          "type": "address"
        },
        {
          "internalType": "uint256",
          "name": "loanId",
          "type": "uint256"
        }
      ],
      "name": "liquidationTrigger",
      "outputs": [],
      "stateMutability": "nonpayable",
      "type": "function"
    },
    {
      "inputs": [],
      "name": "pauseOracle",
      "outputs": [],
      "stateMutability": "nonpayable",
      "type": "function"
    },
    {
      "inputs": [],
      "name": "unpauseOracle",
      "outputs": [],
      "stateMutability": "nonpayable",
      "type": "function"
    }
  ],
  "bytecode": "0x60806040526000805460ff1916905534801561001a57600080fd5b506000805461ff001916905561192f806100356000396000f3fe608060405234801561001057600080fd5b50600436106100675760003560e01c8063253ea98011610050578063253ea9801461009c57806386440958146100a457806399ca99c9146100b757600080fd5b80630fab68651461006c57806316345f1814610076575b600080fd5b6100746100d2565b005b6100896100843660046115da565b6101ec565b6040519081526020015b60405180910390f35b6100746101fd565b6100746100b23660046115fc565b610305565b600054610100900460ff166040519015158152602001610093565b7fc8fcad8db84d3cc18b4c41d551ea0ee66dd599cde068d998e57d5e09332c131f547fc8fcad8db84d3cc18b4c41d551ea0ee66dd599cde068d998e57d5e09332c131c906001600160a01b031633146101835760405162461bcd60e51b815260206004820152602860248201527f4f6e6c79204f7261636c652061646d696e2063616e2063616c6c207468697320604482015267333ab731ba34b7b760c11b60648201526084015b60405180910390fd5b60005460ff16156101ca5760405162461bcd60e51b815260206004820152601160248201527052652d656e7472616e7420616c6572742160781b604482015260640161017a565b6000805460ff191660011790556101df61041f565b506000805460ff19169055565b60006101f7826104b9565b92915050565b7fc8fcad8db84d3cc18b4c41d551ea0ee66dd599cde068d998e57d5e09332c131f547fc8fcad8db84d3cc18b4c41d551ea0ee66dd599cde068d998e57d5e09332c131c906001600160a01b031633146102a95760405162461bcd60e51b815260206004820152602860248201527f4f6e6c79204f7261636c652061646d696e2063616e2063616c6c207468697320604482015267333ab731ba34b7b760c11b606482015260840161017a565b60005460ff16156102f05760405162461bcd60e51b815260206004820152601160248201527052652d656e7472616e7420616c6572742160781b604482015260640161017a565b6000805460ff191660011790556101df610539565b7fc8fcad8db84d3cc18b4c41d551ea0ee66dd599cde068d998e57d5e09332c131f547fc8fcad8db84d3cc18b4c41d551ea0ee66dd599cde068d998e57d5e09332c131c906001600160a01b031633146103b15760405162461bcd60e51b815260206004820152602860248201527f4f6e6c79204f7261636c652061646d696e2063616e2063616c6c207468697320604482015267333ab731ba34b7b760c11b606482015260840161017a565b60005460ff16156103f85760405162461bcd60e51b815260206004820152601160248201527052652d656e7472616e7420616c6572742160781b604482015260640161017a565b6000805460ff1916600117905561040f83836105e4565b50506000805460ff191690555050565b600054610100900460ff166104765760405162461bcd60e51b815260206004820152601160248201527f4e6f742070617573656420737461747573000000000000000000000000000000604482015260640161017a565b6000805461ff001916815560405190815233907fd90c20276b7955800df9b223f244944b25b581f437448b1978aa61d4036b428a906020015b60405180910390a2565b600080826001600160a01b031663feaf968c6040518163ffffffff1660e01b815260040160a06040518083038186803b1580156104f557600080fd5b505afa158015610509573d6000803e3d6000fd5b505050506040513d601f19601f8201168201806040525081019061052d9190611640565b50919695505050505050565b600054610100900460ff16156105915760405162461bcd60e51b815260206004820152600d60248201527f5061757365642073746174757300000000000000000000000000000000000000604482015260640161017a565b6000805461ff0019166101001790556105a73390565b6001600160a01b03167fd90c20276b7955800df9b223f244944b25b581f437448b1978aa61d4036b428a60016040516104af911515815260200190565b6001600160a01b03821660009081527fc8fcad8db84d3cc18b4c41d551ea0ee66dd599cde068d998e57d5e09332c1340602052604081207fc8fcad8db84d3cc18b4c41d551ea0ee66dd599cde068d998e57d5e09332c131c90829060020161064d6001866116a6565b8154811061065d5761065d6116bd565b6000918252602080832060026006909302018201546001600160a01b03891684526024860190915260408320909350016106986001876116a6565b815481106106a8576106a86116bd565b60009182526020808320600160069093020191909101546001600160a01b0389168084526025870183526040808520838652845280852087865284528085208286526029890185528186208487528552818620888752855281862083875260268a0186528287208588528652828720898852865282872084885260278b01875283882086895287528388208a8952875283882094885260288b01875283882086895287528388208a89529096529190952085549396509093928a146107af5760405162461bcd60e51b815260206004820152601260248201527f4552524f523a206964206d69736d617463680000000000000000000000000000604482015260640161017a565b6107ba8b87896109e9565b6107c46002610e40565b8560020154141561080157816004015481600501546107e391906116a6565b8360030160008282546107f691906116d3565b909155506108349050565b61080b6002610e40565b8560020154141561083457816004015483600301600082825461082e91906116a6565b90915550505b60008360030154610888610883866001015460009081527fc8fcad8db84d3cc18b4c41d551ea0ee66dd599cde068d998e57d5e09332c132660205260409020600101546001600160a01b031690565b6104b9565b61089291906116eb565b9050600085600401546108e3610883886003015460009081527fc8fcad8db84d3cc18b4c41d551ea0ee66dd599cde068d998e57d5e09332c132660205260409020600101546001600160a01b031690565b6108ed91906116eb565b9050600061090686600101548960010154856002610efd565b905061091d87600301548960010154846001610efd565b61092790826116d3565b905061093d886001015489600301546001611167565b87600101548d8f6001600160a01b03167f0333a00d2ae04babc6a343c4bee7607832f218b3a1452ec72eb371d9b2f476554260405161097e91815260200190565b60405180910390a489898f6001600160a01b03167f90e46d56120a52ffe3c8d66ab39ff2ec2e4f6c1b05855cdd24ebf5aebfebb64e8b60030154426040516109d0929190918252602082015260400190565b60405180910390a4505050505050505050505092915050565b6001600160a01b03831660009081527fc8fcad8db84d3cc18b4c41d551ea0ee66dd599cde068d998e57d5e09332c13456020908152604080832085845282528083208484529091528120600501547fc8fcad8db84d3cc18b4c41d551ea0ee66dd599cde068d998e57d5e09332c131c919060ff166001811115610a6e57610a6e61170a565b14610abb5760405162461bcd60e51b815260206004820152601460248201527f4552524f523a20494e414354495645204c4f414e000000000000000000000000604482015260640161017a565b6001600160a01b038416600090815260278201602090815260408083208684528252808320858452909152902054610b355760405162461bcd60e51b815260206004820152601960248201527f4552524f523a2041505220646f6573206e6f7420657869737400000000000000604482015260640161017a565b6001600160a01b038416600090815260258201602090815260408083208684528252808320858452909152812060020154819081908190610b78908280806111ed565b909250905083610bc26108838960009081527fc8fcad8db84d3cc18b4c41d551ea0ee66dd599cde068d998e57d5e09332c132660205260409020600101546001600160a01b031690565b6001600160a01b038a16600090815260258801602090815260408083208c845282528083208b8452909152902060030154610bfd91906116eb565b610c0791906116eb565b6001600160a01b03898116600090815260268801602090815260408083208c845282528083208b8452825280832060019081015484527fc8fcad8db84d3cc18b4c41d551ea0ee66dd599cde068d998e57d5e09332c13269092529091200154919450610c7391166104b9565b610c7d9084611720565b6001600160a01b038916600090815260278701602090815260408083208b845282528083208a845290915281206004018054909190610cbd9084906116d3565b90915550506001600160a01b038816600081815260278701602090815260408083208b845282528083208a84528252808320600281018790556003810186905560049081015494845260248a01835281842060258b0184528285208d865284528285208c8652909352922054910190610d38906001906116a6565b81548110610d4857610d486116bd565b6000918252602080832060046005909302018201939093556001600160a01b038b168252602488018352604080832060258a0185528184208c855285528184208b855290945290912054849290910190610da4906001906116a6565b81548110610db457610db46116bd565b60009182526020808320600260059093020191909101929092556001600160a01b038a16815260248701825260408082206025890184528183208b845284528183208a8452909352902054829160040190610e11906001906116a6565b81548110610e2157610e216116bd565b9060005260206000209060050201600301819055505050505050505050565b7fc8fcad8db84d3cc18b4c41d551ea0ee66dd599cde068d998e57d5e09332c132a546000907fc8fcad8db84d3cc18b4c41d551ea0ee66dd599cde068d998e57d5e09332c131c908310610ed55760405162461bcd60e51b815260206004820152601d60248201527f436f6d6d69746d656e7420496e646578206f7574206f662072616e6765000000604482015260640161017a565b80600e018381548110610eea57610eea6116bd565b9060005260206000200154915050919050565b6000808060ff8416610f885760008781527fc8fcad8db84d3cc18b4c41d551ea0ee66dd599cde068d998e57d5e09332c132660205260409020600101546001600160a01b031660008881527fc8fcad8db84d3cc18b4c41d551ea0ee66dd599cde068d998e57d5e09332c132960205260409020600101549092506001600160a01b03165b9050611096565b8360ff16600114156110105760008781527fc8fcad8db84d3cc18b4c41d551ea0ee66dd599cde068d998e57d5e09332c132960205260409020600101546001600160a01b031660008781527fc8fcad8db84d3cc18b4c41d551ea0ee66dd599cde068d998e57d5e09332c132660205260409020600101549092506001600160a01b0316610f81565b8360ff16600214156110965760008681527fc8fcad8db84d3cc18b4c41d551ea0ee66dd599cde068d998e57d5e09332c132660205260409020600101546001600160a01b031660008881527fc8fcad8db84d3cc18b4c41d551ea0ee66dd599cde068d998e57d5e09332c132660205260409020600101549092506001600160a01b031690505b606080606080600073def171fe48cf0115b1d80b88dc8eab59176fee576001600160a01b031663cfc0afeb88888d6000808b898c8c8b6040518060200160405280600081525060006040518d63ffffffff1660e01b81526004016111059c9b9a99989796959493929190611803565b602060405180830381600087803b15801561111f57600080fd5b505af1158015611133573d6000803e3d6000fd5b505050506040513d601f19601f8201168201806040525081019061115791906118c5565b9c9b505050505050505050505050565b7fc8fcad8db84d3cc18b4c41d551ea0ee66dd599cde068d998e57d5e09332c131c816111b8576000848152602b82016020526040812080548592906111ad9084906116d3565b909155506111e79050565b81600114156111e7576000848152602b82016020526040812080548592906111e19084906116a6565b90915550505b50505050565b60008481527fc8fcad8db84d3cc18b4c41d551ea0ee66dd599cde068d998e57d5e09332c13376020526040812081907fc8fcad8db84d3cc18b4c41d551ea0ee66dd599cde068d998e57d5e09332c131c908261124a6001896116a6565b600183015490915087908910156114f55780836001018381548110611271576112716116bd565b906000526020600020015410156113ee57600061128f8360016116d3565b9050620186a060648560020185815481106112ac576112ac6116bd565b9060005260206000200154848760010185815481106112cd576112cd6116bd565b90600052602060002001546112e291906116a6565b6112ec91906116eb565b6112f69190611720565b6113029061016d6116eb565b61130c9190611720565b9750805b60028501548110156113e7576000856001018281548110611333576113336116bd565b90600052602060002001548660010183600161134f91906116d3565b8154811061135f5761135f6116bd565b906000526020600020015461137491906116a6565b9050620186a06064876002018581548110611391576113916116bd565b9060005260206000200154836113a791906116eb565b6113b19190611720565b6113bd9061016d6116eb565b6113c79190611720565b6113d1908b6116d3565b99505080806113df906118de565b915050611310565b50506115ab565b80836001018381548110611404576114046116bd565b906000526020600020015414156114f057815b60028401548110156114ee57600084600101828154811061143a5761143a6116bd565b90600052602060002001548560010183600161145691906116d3565b81548110611466576114666116bd565b906000526020600020015461147b91906116a6565b9050620186a06064866002018681548110611498576114986116bd565b9060005260206000200154836114ae91906116eb565b6114b89190611720565b6114c49061016d6116eb565b6114ce9190611720565b6114d8908a6116d3565b98505080806114e6906118de565b915050611417565b505b6115ab565b60018301548914801561150757508842115b156115ab5780836001018381548110611522576115226116bd565b9060005260206000200154108061155757508083600101838154811061154a5761154a6116bd565b9060005260206000200154145b156115ab576064836002018381548110611573576115736116bd565b9060005260206000200154824261158a91906116a6565b61159491906116eb565b61159e9190611720565b6115a890886116d3565b96505b5050600101549742975095505050505050565b80356001600160a01b03811681146115d557600080fd5b919050565b6000602082840312156115ec57600080fd5b6115f5826115be565b9392505050565b6000806040838503121561160f57600080fd5b611618836115be565b946020939093013593505050565b805169ffffffffffffffffffff811681146115d557600080fd5b600080600080600060a0868803121561165857600080fd5b61166186611626565b945060208601519350604086015192506060860151915061168460808701611626565b90509295509295909350565b634e487b7160e01b600052601160045260246000fd5b6000828210156116b8576116b8611690565b500390565b634e487b7160e01b600052603260045260246000fd5b600082198211156116e6576116e6611690565b500190565b600081600019048311821515161561170557611705611690565b500290565b634e487b7160e01b600052602160045260246000fd5b60008261173d57634e487b7160e01b600052601260045260246000fd5b500490565b600081518084526020808501945080840160005b8381101561177b5781516001600160a01b031687529582019590820190600101611756565b509495945050505050565b6000815180845260005b818110156117ac57602081850181015186830182015201611790565b818111156117be576000602083870101525b50601f01601f19169290920160200192915050565b600081518084526020808501945080840160005b8381101561177b578151875295820195908201906001016117e7565b6001600160a01b038d811682528c16602082015260006101808c60408401528b60608401528a60808401528060a08401526118408184018b611742565b905082810360c0840152611854818a611786565b905082810360e084015261186881896117d3565b905082810361010084015261187d81886117d3565b6001600160a01b03871661012085015290508281036101408401526118a28186611786565b9150506118b461016083018415159052565b9d9c50505050505050505050505050565b6000602082840312156118d757600080fd5b5051919050565b60006000198214156118f2576118f2611690565b506001019056fea264697066735822122091d664e515e6e0117c6192df5bd2cd65d7c2f0ab52a3317b6914fd209ca3586764736f6c63430008090033",
  "linkReferences": {},
  "deployedLinkReferences": {}
}